:020000041000EA
:1000000000B5324B212058609868022188439860DF
:10001000D860186158612E4B002199600221596106
:100020000121F02299502B49196001219960352056
:1000300000F044F80222904214D00621196600F024
:1000400034F8196E01211966002018661A6600F04E
:100050002CF8196E196E196E052000F02FF8012189
:100060000842F9D1002199601B49196000215960AB
:100070001A491B48016001219960EB211966A021F2
:10008000196600F012F800219960164914480160C1
:100090000121996001BC002800D000471248134993
:1000A000086003C880F30888084703B5996A0420EC
:1000B0000142FBD001200142F8D103BD02B5186610
:1000C0001866FFF7F2FF186E186E02BD00000240BE
:1000D000000000180000070000035F00212200005C
:1000E000F4000018222000A00001001008ED00E03C
:1000F00000000000000000000000000074B24E7A12
:1001000000200420F7010010CB010010CD010010E9
:10011000C9010010C9010010C9010010C901001077
:10012000C9010010C9010010C9010010CF01001061
:10013000C9010010C9010010D1010010D301001045
:10014000C1010010C1010010C1010010C101001067
:10015000C1010010C1010010C1010010C101001057
:10016000C1010010C1010010C1010010C101001047
:10017000C1010010C1010010C1010010C101001037
:10018000C1010010C1010010C1010010C101001027
:10019000C1010010C1010010C1010010C101001017
:1001A000C1010010C1010010C1010010C101001007
:1001B000C1010010C1010010C1010010C1010010F7
:1001C000EFF30580103800BE00BE00BE00BE00BECA
:1001D00000BE00BEF2EB8871787C00109C7C0010A1
:1001E0003802001090A31AE71E481F49086006C88D
:1001F00081F3088810471D480068002801D019487D
:10020000F3E70DA40ECC002902D000F012F8F9E7B4
:100210001749184A002000E001C19142FCD116495B
:100220008847164988471649884700BEFDE701C937
:1002300001C29A42FBD370479C7C0010C000002092
:1002400068120020448E00100000042000000420EA
:10025000448E001000100420001004200000000054
:10026000704700000000000008ED00E0000000D032
:1002700068120020C82A0020F93D0010D5020010A5
:10028000F13D0010F8B5C04606480749091A8B1021
:10029000C90FC91810B5491003D0044B002B00D06A
:1002A000984710BD6812002068120020000000006E
:1002B000054B10B5002B03D00449054800E000BFF2
:1002C000FFF7E2FF10BDC0460000000058290020E3
:1002D0008475001070B503F0CDFE06F07DFB02239F
:1002E0001E4C23601E4B1A688023DB015340E02222
:1002F000D20113401B4A136006F096FB002826D15A
:100300000425194E8021164A2560490013680B42C6
:10031000FCD050680004000C02F07EF8134902F093
:1003200074F8134902F057F8124902F05AF8011C08
:10033000114802F050F802F091F802000B00300072
:1003400003F06AFFFA20800001F036F8DAE70B4884
:1003500003F0DEFE0120404270BDC04600E00440D4
:1003600000C0044000D004409C7500103333533A61
:100370006ABC343F2D93E13A0000D84188750010E3
:10038000074B8000C3181B68C90092000A435A40FB
:100390000C231340034A9446604403607047C046F0
:1003A00004C0014004D00140D0231B061B6830B5B7
:1003B0000500584243412F205B4283430E48EC081E
:1003C0008446072028408000814020000B4D3C30AF
:1003D00063448000A40041511B19002A05D08022EB
:1003E000920194466344196030BDC0229201944644
:1003F00063441960F8E7C0463041014000400140C5
:10040000D023F0B5C6461B0698461B680C4F9B00D0
:100410001600FA5804000D0000B5104209D1290059
:1004200014430D203200FC5000F072F980BCB84635
:10043000F0BD01F0E7FA43461B689B00FA58EEE76F
:100440008829002010B504000D2000F05BFAD023AD
:100450001B061B6802499B005A58A2435A5010BD04
:10046000882900208023DB051868000F7047C046EC
:100470000FB400B5084883B003F04AFE049B002B7C
:1004800007D005A91800019103F098FC034803F078
:100490003FFE012003F0AAFCB8750010C8750010DB
:1004A000EFF3108072B6034A1368002BFCD0BFF341
:1004B0005F8F70472C0100D0BFF35F8F0022024B8B
:1004C0001A6080F3108870472C0100D070B5EFF3EC
:1004D000108C72B60D4D2B68002BFCD0BFF35F8FD4
:1004E0000724CB08C618C05C01230C40A3401C00A5
:1004F0000440034207D118433070BFF35F8F2C6074
:100500008CF3108870BD1000FFF7B2FF2C0100D0F3
:10051000F8B54746CE46884680B5EFF3108C72B6E4
:100520001C4D2C68002CFCD0BFF35F8F9A4222D860
:1005300007210126894602E00132934218D34D4635
:1005400037001540AF40D4080119045D2742F3D1AC
:1005500010003C430C70BFF35F8F00220D4B1A60FC
:100560008CF3108800280EDBC0BCB946B046F8BD3D
:1005700001204042EFE7BFF35F8F00232B608CF335
:100580001088012040424346002BEDD00898FFF729
:100590006FFFC0462C0100D030B5EFF3108C72B65F
:1005A0000A4C2368002BFCD0BFF35F8F0723012286
:1005B0000B409A40CD08435D93434355BFF35F8F93
:1005C000002323608CF3108830BDC0462C0100D07E
:1005D000044A1078431CDBB2172B00D91023137088
:1005E0007047C0467811002010B5064B064C82B00B
:1005F0000100009318221F232000FFF789FF02B09B
:1006000010BDC046CC750010FC1B00200021044B1F
:10061000044ABFF35F8F02C39342FAD17047C046CA
:10062000000100D0800100D0054B064A1360064A45
:10063000136053609360D36013615361936170479B
:100640008080808000E400E004E400E01F23184084
:100650001E3B8340002905D0C021044A4900535065
:1006600013607047802201498B50FAE700E100E0F7
:1006700001228240034B1B6813405A1E9341D8B29B
:100680007047C04600E100E001238340014A136047
:100690007047C04600E200E0064B10309B688000C7
:1006A000C358054A00209B1A2F229A424041C0B2EB
:1006B0007047C04600ED00E07C11002070B50D00D1
:1006C000EFF3108672B60F4A1368002BFCD0BFF30D
:1006D0005F8F0D4B10309B6884001B590B4A93426F
:1006E00003D09D4201D001F08DF9074B9B681D514D
:1006F000BFF35F8FBFF35F8F0022024B1A6086F358
:10070000108870BD240100D000ED00E0C101001090
:10071000F0B557464E46DE464546E0B585B0060084
:1007200000911700EFF3108B72B66A4A1368002B22
:10073000FCD0BFF35F8F0025674B5D579A46002DB5
:1007400000DAA9E06B00654C01935B199B009846A9
:10075000A146C1444B4652469B7910361370604BFC
:10076000B6009B6899590B1B2F2B33D95D4B9942CF
:1007700000D0ACE0019B42469C465B4B6544AD001B
:1007800063535A4B0232A218043B9B1A1B05584A6A
:100790005B0D651913436B80564B0121AB80FF2322
:1007A000AB71009BEF71AB604B460B4319004C4B98
:1007B0009B689951BFF35F8FBFF35F8F0022454B5A
:1007C0001A608BF3108805B0F0BCBB46B246A94650
:1007D000A046F0BD01200A008243D3798C46BB427B
:1007E00031D84546130044491B1B5B415943090D51
:1007F0003D4B63533D4B02356519043B5B1B1B05A9
:100800003B4D5B0D2B43AA464D466B800425AC4601
:100810005546E044131F44441B1B1B055B0D1D4341
:100820004B46997100999D8099604946DF71334B21
:1008300001431360BBE75800C01880002018C1793D
:10084000B9422FD902000623D356002BF3DA0293C4
:100850002B4B61460393131D9A4604235B429C462F
:10086000E14450464B461B1A1B055B0D9C46204B32
:10087000957198466346404603439380019B5A19FD
:100880009200039BA418A380029B1C4AA371009BA7
:100890002260E771A3608AE701F0B4F800255346AF
:1008A0005D574FE7908802934005131D9A46031544
:1008B00061469C464046D444634604302018181ACA
:1008C000E0230005400D1B0218430390C5E701F02B
:1008D00099F84FE7240100D0C02A00207C110020A5
:1008E00000ED00E0C101001000A1FFFFAC110020ED
:1008F00000E0FFFF01BDFFFFAAAA000001488047FA
:1009000001BD0000F0B5DE4657464E464546E0B50F
:100910000C0083B0EFF3108872B6634A1368002BA3
:10092000FCD0BFF35F8F614B61499A6803001033BD
:100930009F00D55901938D4243D0A54254D05D4EBE
:10094000AA1B2F2A3DD85C4B9B461B689946012366
:100950001A009C4682404B4613401F22994663462C
:10096000024093409A4680225B4650469850BFF31F
:100970005F8FEFF305839B46002B37D0019B5B45D0
:1009800001D001F03FF801232A009A439068844285
:1009900008D176E04B005B189B00F31898688442FE
:1009A00036D01A00062151560029F3DA844254D079
:1009B0004B46002B27D0C02251463F4B5200995046
:1009C00019603A4B9B68DD51BFF35F8FBFF35F8FB8
:1009D0000022354B1A6088F3108803B0F0BCBB4688
:1009E000B246A946A046F0BD0D00EAE72A006346DC
:1009F0009A4390688442D5D10620105613000028EF
:100A00000ADA0D0031E0802351462B4AD150D8E755
:100A100006201856002821DB42001118890074189E
:100A20008B46A1689960E179D97106216156997167
:100A3000002924DBA488F11A640524155C440919F3
:100A400009051E4C490D2143998013181C4A9B002F
:100A50001178F31899711070AAE71300594600290C
:100A600014D1FF3191711749918015490A789A7113
:100A7000154A9B1B5B415A43120D0A7098E71149B6
:100A8000E2E70620105613000028C5DA0F4A104985
:100A9000D21A083A5002400D014399800D4952087C
:100AA0000A43DA8084E7C046240100D000ED00E06C
:100AB000C10100107C11002000E100E000E0FFFF18
:100AC000C02A002001BDFFFFAAAA0000B611002025
:100AD00000F0FFFF00F8FFFF10B5830804000320BB
:100AE0002040FF24054AC0009446844081409B007A
:100AF00063441A68A2430A431A6010BD00E400E090
:100B000070B501240443EFF30581EFF3108C72B646
:100B1000214A1368002BFCD0BFF35F8F1F4B0500E9
:100B20001F4AED1A6D416A43120D1E4D8900AE68D1
:100B300052B27658A6421CD00621595691421CD07A
:100B400012215956914222D01E215956914220D04D
:100B50002A2159560324914210D0134B19781A7048
:100B60008171BFF35F8F00220B4B1A608CF31088EA
:100B700070BDAB680D4C5C50EFE7002461000919B3
:100B800089005B18FF21997109499980E5E70124E3
:100B9000F4E70224F2E7C046240100D07C110020D3
:100BA000AAAA000000ED00E0C02A0020C101001048
:100BB00001BDFFFF1F2110B5091A0248FFF7ECFC29
:100BC00010BDC046C42A002010B5084B084C82B0A6
:100BD00001000093002205232000FFF799FC002864
:100BE00001DB1F23181A02B010BDC046E8750010C3
:100BF000C42A002070B504000E001500FFF7E8FCC1
:100C00000100200000F006F8A680E580BFF35F8FAA
:100C100070BDC046024B9C4661448900016070472C
:100C20004000003470B5114C114DAC420FD2FF267C
:100C30002368002B0CD0FFF7CBFC01002000FFF74E
:100C4000E9FFA680BFF35F8F0834AC42F0D370BDDC
:100C5000FFF7BEFC01002000FFF7DCFF2671BFF3A9
:100C60005F8F0834AC42E3D3F1E7C0466012002046
:100C70006812002010B50400FFF7AAFC0100200054
:100C8000FFF7C8FFFF232371BFF35F8F10BDC0467E
:100C900010B50400FFF79CFC01002000FFF7BAFF2D
:100CA000FF23A380BFF35F8F10BDC04610B50400C3
:100CB0000120FFF799FC034BC3189B002360BFF38F
:100CC0005F8F10BD40000034034B9C466144890097
:100CD0000160BFF35F8F7047400000340A4B196812
:100CE000EFF3108072B60A68002AFCD0BFF35F8F62
:100CF0001B68BFF35F8F00221A6080F3108840BF2B
:100D0000002000217047C0469C2A0020F0B5DE4636
:100D100057464E464546E0B587B0EFF305830322BC
:100D200001251A40954091008846A946B34B03928D
:100D30005C58B34B1D60B34B04934B46B2484363BE
:100D40000823E55E002D37DAA3881BB2002B00DBF9
:100D5000ADE0A379002B00D0EEE00823E05E002890
:100D600020DB430062691B18DB00D3189E68DD6836
:100D7000731C00D111E1A44801004144826A0B694F
:100D8000B71A9B1A9F4215D30123026A0398834026
:100D90001A420FD09C4800F01DFC8D4202DCCCD1E1
:100DA0008642CAD940BF07B0F0BCBB46B246A9468E
:100DB000A046F0BD0E61EDE762696B0092465B19DB
:100DC000DB009A4453469E68DF6800F003FC8F42C4
:100DD000BADC00D103E1002F00DAE8E052465346C6
:100DE00052691B699346049A934200D1D9E0524656
:100DF0000821605E528800045946104398470090CD
:100E000001910099019A0B001000134300D1CEE02C
:100E100013000A00B61A9F41002806DB7A4800F04A
:100E2000D9FB009E019F36184F4153469E60DF60FC
:100E300000229A5E002A00DA86E75300991860695A
:100E4000C900411802938B68C9689B46B94200DD0E
:100E50007AE702D1B34200D976E708239C46A4443E
:100E6000059565462281A446029B2C0006E05300AE
:100E70009918C90041188D68C968AB469B18DB00FA
:100E8000C318B94206DC00D1B3E01C000023E25EC7
:100E9000002AECDA230064469C4653461A806346D7
:100EA000059D1D80A3881BB2002B00DA51E7226943
:100EB000EFF3108172B61368002BFCD0BFF35F8F85
:100EC0000123A7885B42A3803FB22369BFF35F8FF2
:100ED00000221A6081F31088002F00DA39E723001E
:100EE000083322009A4666697B00DB19DB00F318A1
:100EF000996850468C460824115FDD68002910DB94
:100F0000029306E0AB4244D00023E15E20000029BA
:100F100006DB4C006418E4003419E368AB42F1DDF1
:100F2000029B078000201F5E1980002FDCDA14006E
:100F3000A379002B00D110E70023A371260008231A
:100F4000E15E08364B1C00D12CE70800A24665691B
:100F500002E03E004B1C1AD04B005B18DB00EF1880
:100F60000A008C46E95E7B881BB2002BF1DA012374
:100F70005B42DC17BB60FC60824205D05346318087
:100F80001B893B8053461A8160464B1CE4D1544672
:100F9000E5E6A3686345B7D9C2E76B1C00D0EAE673
:100FA000F8E65B4658461B69984700281BD1534614
:100FB0001B8822692381EFF3108372B61168002920
:100FC000FCD0BFF35F8F514662880A80226965803A
:100FD000BFF35F8F0021116083F31088B4E686426F
:100FE00000D8F8E6B0E65B461A685B6800920193A9
:100FF00007E7B34500D848E74CE7C046782900200A
:101000003C7005400D0D00100040054070B52E4CA1
:101010002569002D04D00A212C48FFF7FBFD70BD87
:101020002B4E0321300000F0CBFAE660FFF7D0FA38
:10103000284B03229C46D02322701B061B680121EB
:101040006370254B6044A3600F2380002061022061
:10105000638063694942A180198002311986473152
:101060001D83585218315A5275325C3999521832D0
:101070000131995218320131995218320131995285
:10108000083518329D520231183299521832013106
:10109000995218320131995218320131995218324D
:1010A000013199521832013199520C4B0C49DC60D4
:1010B00001303562FFF702FB01210320FFF7C6FA7A
:1010C000084B1D60A7E7C046C41100209C2A0020E1
:1010D0000040054040000034FFFF10007829002048
:1010E0000D0D00103860054000487047C411002005
:1010F000F8B51F0008AB1B7804001600002B08D1C0
:1011000000F070FA32003B00121A8B41002B00DA1B
:1011100052E02269EFF3108072B61368002BFCD006
:10112000BFF35F8F0223E15E63694A005218D20069
:101130009B182269002936DB1D886580BFF35F8F0D
:101140000025156080F31088069A9E60DF601A61A2
:10115000079A5A615A8801325204520C101C002A14
:101160001FD082B25880080410432669EFF310871D
:1011700072B63268002AFCD0BFF35F8FA2881A8053
:10118000A1802369BFF35F8F00221A6087F3108864
:101190000A4923788C4601329A40E36863441A6016
:1011A000F8BD0120DDE7BFF35F8F0023136080F3FC
:1011B000108801204042F3E70020F1E73C200000C6
:1011C00070B501000469EFF3108C72B62068002836
:1011D000FCD0BFF35F8F02200D5E4C6968004019A0
:1011E000C00024180869002D36DB26884E80BFF326
:1011F0005F8F002606608CF31088E3606388049894
:10120000013320615B0405985B0CA26060611A1CCD
:10121000002B1FD093B22804628018430A69EFF3B1
:10122000108C72B61368002BFCD0BFF35F8F8B88D5
:1012300023808D800B69BFF35F8F00221A608CF3CF
:1012400010880B7801329A40CB6808498C46634479
:101250001A6070BD0122DDE7BFF35F8F00230360DA
:101260008CF3108801204042F3E7C0463C20000088
:1012700010B543890A1493421ADD53009B18426942
:10128000DB00D3180469EFF3108C72B62268002AD1
:10129000FCD0BFF35F8F5A88090494B2090C8A42CC
:1012A00008D00369BFF35F8F00221A608CF31088A7
:1012B000002010BD8022120214435C8001230269C9
:1012C0008371BFF35F8F002111608CF31088044994
:1012D00002788C469340C268012062441360E8E7BC
:1012E0003C20000040787047F0B506000F0006244F
:1012F0006442E517C646A4197D4100B582B08D420F
:1013000014D811D000F06EF922002B00121A8B4174
:10131000002B15DC002B44D03000390000F06CF9B4
:1013200002B080BCB846F0BD8442EBD90024002551
:1013300000F058F922002B00121A8B41002BE9DD36
:1013400000F050F922002B00121A8B41002B0ADB0F
:1013500000230193144B2200009314482B00FFF745
:101360002FFF0130D8D0A04629000024104A114890
:10137000536A994204D8956A4545CDD29942CBD15A
:101380000568EFF3108C72B62B68002BFCD0BFF30E
:101390005F8F0368BFF35F8F1C608CF3108820BFE2
:1013A000E6E7002AB8D0CBE7DD0C0010C41100201E
:1013B000004005409C2A0020F0B5C64600B582B02A
:1013C000040000F00FF9FA2206000F0020000023AD
:1013D0000021920000F0E2FF8019794104000D1E07
:1013E00002DA01242E4D644206267642F71736199A
:1013F0006F41AF4214D811D000F0F4F832003B0036
:10140000121A8B41002B15DC002B46D0200029003E
:1014100000F0F2F802B080BCB846F0BDA642EBD9AD
:101420000026002700F0DEF832003B00121A8B4144
:10143000002BE9DD00F0D6F832003B00121A8B4198
:10144000002B0ADB00230193164B32000093164851
:101450003B00FFF7B5FE0130D8D000233900B0467D
:101460009C46124A1248536A994204D8966A4645E5
:10147000CCD29942CAD10668EFF3108772B63368AE
:10148000002BFCD0BFF35F8F0368BFF35F8F66460E
:101490001E6087F3108820BFE5E7002AB6D0C9E7B1
:1014A000FFFFFF7FDD0C0010C4110020004005404D
:1014B0009C2A0020F0B557464E46DE464546E0B52C
:1014C00006000F0085B0EFF3058399468B46002B8D
:1014D00012D0384900204B6ABB4206D38A6ADB1B14
:1014E000591E8B41B2424041184305B0F0BCBB4687
:1014F000B246A946A046F0BD2F4B9A46DB689846F7
:1015000053461B784046039300F064F84246039B21
:10151000040004339B009B580D001B1A3900300057
:10152000001BA941894510DC0DD020BF214A0020B5
:10153000536A5B45D9D3926ADB1B591E8B41B24279
:1015400040411843D1E78342EFD900F04BF8320015
:101550003B00121A8B41002B1ADB00230193174B1F
:101560003200009350463B00FFF72AFE011E0FDDBC
:10157000104B5A6A5A451BD39B6AB34216D3504646
:10158000FFF776FE0B4A0020536A5B45ADD3D2E7E6
:10159000084A0020536A5B45A7D30020926ADB1BF0
:1015A000B24240415A1E934118439EE75A45E6D144
:1015B00020BFE4E700400540C4110020DD0C00100E
:1015C00010B5024A0248FEF781FF10BD04760010F4
:1015D000001C00200300416A0A00986A596A8A4286
:1015E000FAD17047034B596A0A00986A596A9142C6
:1015F000FAD1704700400540064A536A9942FCD828
:1016000007D1044B02E05A6A914202D19A6A904291
:10161000F9D8704700400540F8B5DE464E465746BB
:101620004546E0B58B4605000A991800160000F003
:101630003BFB0A9B6C001F02324B64199C46A400C2
:101640006444636881469F4200D967602B1FDBB208
:101650009846012B30D9C02380229B01E318120148
:101660001A60294BAD0059599A4600291BD17301C4
:10167000E026226853401E40802342465B01E31867
:101680001E60012A30D9802380229B01E3181201B9
:101690001A6053464A4667605A51F0BCBB46B24690
:1016A000A946A046F8BD586900F0FEFA0130430093
:1016B0001B18033BFDD2DAE75B46012BCBD1C023DD
:1016C00003229B01E3181A60023AA3681A42FCD075
:1016D0007301E0262268AD0053401E4080230A4A71
:1016E0005B019246E3181E605A462168514003226E
:1016F0000A401A6001225B469A40A3681A42FCD055
:10170000C1E7C04600800040081C0020F0B54646F6
:101710004F46D646C0B51F00344B44009C462418A3
:10172000A4006444636888461600FF2B02D8802317
:101730005B006360031FDBB29A46012B30D9C023E4
:1017400080229B01E31812011A60294B8500595928
:10175000994600291BD17301E026226853401E40A0
:10176000802352465B01E3181E60012A30D9802392
:1017700080229B01E31812011A6080235B006360E2
:101780004B465F51E0BCBA46B146A846F0BD586929
:1017900000F08AFA013043001B18033BFDD2DAE760
:1017A0004346012BCBD1C02303229B01E3181A60CF
:1017B000023AA3681A42FCD07301E0262268850031
:1017C00053401E4080230A4A5B019146E3181E6085
:1017D00042462168514003220A401A6001234246D2
:1017E0009340A2681342FCD0C1E7C046008000408D
:1017F000081C0020014B8000C0587047081C0020C6
:10180000F8B5040021481E0017000D0000F04CFA46
:101810000100380000F048FA069B36041B031E4303
:101820002368002B20DB1A4B1A49E3185A1E9341F8
:101830008022920194465B421B0B174A1B036344B0
:101840001360164A13601F000A689743FBD1144BBC
:101850002560E2182123A06013602368002BFCDAC6
:101860000823E6601360F8BD3F2322681340AB42B3
:10187000D9D1A3681B051B0D8342D4D1EE22E368A6
:10188000D2021340B342CED1EDE7C046001BB700F1
:101890000040FDBF08C0004000E0004000F00040F4
:1018A0000430000010B580241C4BE4051C600028A7
:1018B0001AD001231A4C18431A4BDC611A4C4440CD
:1018C0001C62596298628021144BC905196017483F
:1018D00017490860E021C9041960002A07D1802255
:1018E000144B12061A6010BD0E4BD861EBE7530182
:1018F0009B1A9B009A18802312015B049A4209D21A
:1019000013000D490B60074B5A608022094BD2052A
:101910001A60E8E7094B1A00F3E7C04600B005403B
:10192000D3C007B0008005402D3FF84FFCFF0100F9
:101930000820014000A0054050290020FFFFFF00C3
:101940008023024A9B000B43D3627047008005400E
:10195000002310B50100988A1B8B984710BDC04624
:10196000162310B50100188802331B88984710BD54
:10197000F8B54746CE4680B50F1E18D014239946B9
:10198000043304000025012698464B461888434638
:1019900021681B88984701C4431E984101350640C1
:1019A000AF42F2D13000C0BCB946B046F8BD012606
:1019B000F8E7C046002370B504000D00988A054979
:1019C0001B8B984703000020002C01DB0130A04056
:1019D0002900984755420000AA23064A1B011360BC
:1019E0008D235B00D3600449044B19605368002BBE
:1019F000FCDA70470040024000B0FA00006002408C
:101A00007047C04610B50148FEF732FD2876001039
:101A100070B5074D074EB54209D20024013E761B32
:101A2000B60808CD984723000134B342F9D170BD00
:101A3000407500107C750010054B064A06491A6077
:101A4000064A074B1A6010000B689843FBD1704799
:101A500000E00040BFCDFBFE08C00040FE7F3C0020
:101A600000F00040044BDB6C002B03D18022034BC1
:101A7000D2021A607047C046000011504C2011502D
:101A8000044A054B1A60054A1368DB018033FBD119
:101A90007047C046FFFFFF0100F0004008C0004053
:101AA0004022034B9A675A671A67DA667047C04646
:101AB00000F0014010B5FEF7A9FD10BDF8B52749AB
:101AC000274C284D641AA6103200302E00D930223F
:101AD0002800920000F00AFDBC2C3BD830202F23B8
:101AE0002C196407204A801BE40F9B1B052B16D979
:101AF0003700002C02D0B300771CEA50001B3319CA
:101B00009B004108EB18C900C9181A605A600833D5
:101B10009942FAD1012303421CD09843C619B3005D
:101B2000EA50731C2F2E15D09B00EA50B31C2E2EAA
:101B300010D09B00EA50F31C2D2E0BD09B00EA50D6
:101B4000331D2C2E06D09B00EA50731D2B2E01D086
:101B50009B00EA50054B9D60F8BDC0460001001097
:101B6000C001001000000020C101001000ED00E0E5
:101B7000002310B5294C82B0A367FFF72DFF012287
:101B8000274B1A60636C012BFCD10322254B1A6092
:101B9000224A936B012BFCD1013300930121224A8D
:101BA00022480433FFF72CFE052301210093204A2D
:101BB0002048FFF725FE0022022104201E4BFFF7DC
:101BC000A5FD0022012105201C4BFFF79FFD0022EF
:101BD000002107201A4BFFF799FD00220021082061
:101BE000174BFFF793FD8023DB00009300220021B9
:101BF0000920134BFFF710FD0022104B0021062097
:101C0000FFF784FD0420FFF7F5FD0E4900F04CF8C6
:101C100001000020FFF794FE02B010BD00800040DC
:101C20003CB0004030B00040002F685900800240B6
:101C3000008C864700C00240001BB7004059730764
:101C4000006CDC0240420F0001480421014B1847A0
:101C5000E011002071190010124A936F9B0815D2F1
:101C60009066D166002905D0FFE7FFE7FFE7516FD7
:101C7000106F704704B580210906C2175140002833
:101C800000D0C84305F0FCFB002104BDF0B5146E84
:101C9000556E576F166FFFF7E3FF1466556657676B
:101CA0001667F0BD000000D0114A936F9B0813D255
:101CB00010665166002905D0FFE7FFE7FFE7516F87
:101CC000106F704704B5002801D00020C04305F014
:101CD000D7FB002104BDC046F0B5146E556E576F9A
:101CE000166FFFF7E5FF1466556657671667F0BD78
:101CF000000000D094464A4A926F9208624601D290
:101D000028E0C046F0B5464E346E756E776F366F7C
:101D100000F020F89446424A1466556657671667E5
:101D20006246F0BD94463E4A926F9208624601D2E6
:101D300054E0C046F0B53A4E346E756E776F366F2C
:101D400000F04CF89446364A146655665767166795
:101D50006246F0BD002B24DB11D000293EDA00B52D
:101D6000C943404200D1013100F038F8C943404234
:101D700000D10131DB43524200D1013300BD002AC2
:101D8000EBD1002801D1002905D00020C90FC907D7
:101D900001D1C043410800B505F062FB00220023D9
:101DA00000BD00B500290ADBDB43524200D10133FC
:101DB00000F014F8C943404200D1013100BDC943CD
:101DC000404200D10131DB43524200D1013300F0E7
:101DD00005F8DB43524200D1013300BD002923D175
:101DE000002B18D1002A0CD0BC460D4F38667A66FD
:101DF00000210023FFE7FFE7FFE77A6F386F6746B0
:101E00007047002801D00748010000B505F028FB05
:101E10000022002300BD02000B00002000217047BB
:101E2000000000D0FFFFFFFF002B00D0BFE0130C2D
:101E300028D1002AE7D080B4114F39667A66FFE7CF
:101E4000FFE730B4040C7B6F396F1B0423433B6600
:101E50007A66FFE7FFE7FFE7C04684B27B6F3D6F1E
:101E60001B0423433B667A66FFE7FFE7C046002377
:101E70002C042D0C7A6F386F00196941B0BC704783
:101E8000000000D0F0B594460025140E01D11202D6
:101E90000835140F01D112010435940F01D19200BD
:101EA0000235D40F01D152000135D40B0134254F36
:101EB0007C66254C3C660E0C93B2FFE7FFE7FFE71C
:101EC0003C6F6643360C7703BE467343DF0B5B04FF
:101ED000C01AB941130C7343DB18C91ACE08664304
:101EE000360CB64493B273431F0F1B01C01AB9419D
:101EF000130C73431F0B1B05C01AB941860D8F02CB
:101F00003E436643360C092D24DB520A7243801A85
:101F10007703460A6643360C16235B1BDE40DF4020
:101F2000BF1964466643821B7046043506330100C0
:101F3000D940A840C01900D30131A24206D20023E3
:101F4000F0BD0000000000D0FFFFFFFF121B0130BA
:101F5000F3D3F1E709277F1BFE406446A2B2724328
:101F6000801A00D20139220C7243130C1204821A17
:101F700099410B007046043513370100F940A84021
:101F8000801900D30131002B02D1A2420AD2F0BD48
:101F9000013000D30131121BFAD2013BF8D1A24229
:101FA00000D2F0BD013000D30131121BF7E7F0B5CC
:101FB0001C0C00D080E00CB400251C0A04D11B02CC
:101FC000160E3343120208351C0B04D11B01160FE9
:101FD0003343120104359C0B04D19B00960F33430D
:101FE00092000235DC0B02D192185B4101351C00D6
:101FF000971864410134464F7C66464C3C660E0C93
:10200000FFE7FFE7FFE7C0463C6F6643360C770308
:10201000BE4697B27743C01B00D20139C01B00D225
:1020200001399FB27743C91BC91B170C77437E0444
:10203000FF0B801BB941CE086643360C0C2D33DBF9
:10204000B644120B1F053A431B0B97B27743C01BD4
:1020500000D201399FB27743C91B170C77433E0466
:102060003F0C801BB941860D8F023E4366432927F2
:102070007F1BFE400C3D7746AF40BF1930BCA2B27B
:10208000ABB272437343801A9941220C7243130C12
:102090001204801A994102000B000137001BA9416C
:1020A000F9D2781E0021F0BD0C277F1BFE40774639
:1020B0007F0BAF40FF19E0E700245D1C07D0144FF1
:1020C0007D663966FFE7FFE7FFE7FFE73C6F95B204
:1020D0009EB265436643401BB141150C1E0C65431F
:1020E000664336042F0C3E432D04401BB1419942F8
:1020F00004D202000B0020000021F0BD01D190426B
:10210000F7D3801A994101349942F2D3F6E70000DF
:10211000000000D0FFFFFFFF48404140484018B496
:10212000134B5B68019308BD18B4114B1B680193F6
:1021300008BD94460F4A926F920805D2624618B4C1
:102140000B4BDB68019308BD0A4AF0B5146E556E5F
:10215000576F166F6246FFF7F2FF064A1466556620
:1021600057671667F0BD18B4014B9B68019308BD13
:1021700038140020000000D0FFB5504042405040CD
:1021800059404B40594000E0FFB5154F4C00640DDD
:1021900003D0BC4204D10C0314D80020090D09055A
:1021A0005C00640D03D0BC4204D11C030AD8002299
:1021B0001B0D1B0501264B4009D44B4003D58B4218
:1021C00000D18242FFBD9942FCD19042FFBD0B433A
:1021D000DB1803431343F5D0C9434918FFBD000082
:1021E000FF07000000B5FFF7CFFF804100BDC046EC
:1021F00000B5FFF7C9FF01D9002000BD012000BDD7
:1022000000B5FFF7B9FF01D9002000BD012000BDD6
:1022100000B5FFF7B1FF804100BD012040054A0035
:10222000121804D85A00121801D800207047012053
:10223000704700000021002805D17047C1174840B1
:10224000401AFAD0C90713B5064B1B6898470CBC57
:10225000441CA2401005120B0349091B0905194330
:10226000114310BD982900201F04000010B54C0038
:10227000620D8023D218DB00D21A5B057E2A10DDA6
:102280009E3A13DACC170903490819435242D14048
:10229000640001341532202A05DAD0400843604337
:1022A00010BD002010BD0846604310BDC80FC01807
:1022B000013810BD18B4024B5B6A019308BD0000E1
:1022C0003814002010B50148FEF7D2F8347600101B
:1022D000132370B51D78012D19D014DD1D48FFF7AB
:1022E0003FFB06001C48FFF73BFB1C4C80223100E3
:1022F000200000F0FBF8022D06D01948FFF728FB5C
:10230000184B186070BD154C174BA364F5E7174BBD
:10231000124C23606360A360E36023616361A36187
:10232000E36123626362A362E36223636363A36383
:10233000E36323646364A364E36423656365A36563
:10234000E36523666366A366E36623676367A36743
:10235000E367D9E7534400005346000038140020D7
:102360004C3300009829002071230010C522001072
:1023700007B5604601880A0A0230DF2AFAD1C9B2DD
:10238000820804D3028840880004104300E00068FB
:10239000014A5050039007BD381400205143434375
:1023A000C9188C46110C83B24B4310B4040C614322
:1023B00092B280B2504362431C041B0C001910BC43
:1023C00059411304120CC018514161447047000078
:1023D0004840414048400E4B5B6818470C4B1B6817
:1023E00018470C4A936F9B0802D2094BDB681847C9
:1023F000F0B5146E556E576F166FFFF7F6FF054A6E
:102400001466556657671667F0BD014B9B68184701
:102410009C290020000000D0C10FC90700D5404210
:10242000002817D0F44603B40B4B1B68984706BC32
:1024300081409E384042803107D20B0607D04900C8
:10244000490AC0051043084360470130F8E7490ACC
:102450008902F5E77047000098290020014BDB6FE7
:10246000184700009C29002010B50148FEF700F82D
:102470009C760010132310B510481C78FFF770FAF3
:102480000100012C0AD003DD80220D4800F02EF857
:102490000C48FFF75DFA0C4B186010BD084C542235
:1024A000200000F023F82200084980322368002B26
:1024B00000D1216004349442F8D1E9E7534600008A
:1024C0009C2900204C33000098290020692400102A
:1024D00001480421014B1847F01100207119001028
:1024E000014B1B6818470000F0110020014B5B688E
:1024F00018470000F01100207047C046F8B5574655
:10250000DE464E464546E0B599460A9B07009A4688
:102510000D9B884693460B9C9B073BD10C9B9C4292
:102520003DD21E1B0B9415000C005E442A004B4646
:10253000013521002020B847B542F7D1A0460B9CB9
:10254000002C20D0454636195346321B013C185DFD
:1025500029004B46B847002CF6D12B003500984691
:102560000D9B9B070FD55B46EC1A0C9BA3420AD927
:10257000464698462A004B46310020200134B84791
:1025800001354445F6D32800F0BCBB46B246A94607
:10259000A046F8BD16001500002CD3D1E0E71600C8
:1025A0001500002CCED1EEE7F0B54546DE46574685
:1025B0004E46E0B585B09C4610AB1B78149F934601
:1025C00098460F9C129E139DBB074CD4002D42D100
:1025D000B44248D201233B4099460E9B013B9A46A8
:1025E000302304E0524601341355A64201D9202C71
:1025F000F8D14B46002B00D183E00E9B013B99465E
:102600003023A54205D82EE04A4601341355AC428A
:1026100029D0202CF8D1FB060CD57B0554D4A6423A
:1026200063D0A54261D0119B102B50D0022B57D004
:10263000202C32D1202301930E9B5A4600930397FE
:1026400063460295FFF75AFF05B0F0BCBB46B246A1
:10265000A946A046F0BD01233B40994601233B42D9
:102660002AD1B442B9D3FB061CD57B05DBD4002CA0
:10267000D5D1119B102B5BD0119B022B6BD030233B
:1026800001240E9A13704346002B10D17B073ED5D0
:102690002B260E9A631C1655CDE7230001343026F5
:1026A0000E9AD654202CC5D04346002BEED02D26B2
:1026B0000E9A631C1655BEE74346002B2FD0013DF2
:1026C000B44200D289E798E7119B102BB2D1BB0628
:1026D00037D5202CAED058230E9A13550134A7E7D6
:1026E000202CA7D02300013407E0631E012CC0D0AA
:1026F000119A102A31D0022AD1D162260E9AD654CC
:1027000096E7FB06CED57B0500D488E78BE7230050
:102710003E0790D520260E9A013316558BE70C23E1
:102720003B405A1E9341ED1AB44200D255E764E78C
:10273000BB060ED478230E9A0224137030235370F4
:10274000A1E7202C00D175E778230E9A13550134A8
:102750006EE75823EFE76033EDE70E9AA61E914629
:102760004E44BA0602D55822327098E77822327069
:1027700095E7C04610B5002800D110BD01F07EFCE1
:10278000FBE7C0460B0010B5002802D049681B6863
:10279000984710BDF0B55746DE464E464546E0B573
:1027A00095B083460F00924698461E9A1F9B1000D4
:1027B0001900209EFFF731FD002800D0EAE11E98A5
:1027C0001F990122C54B5242FFF70CFD002800D093
:1027D00014E11E981F990122C14B5242FFF718FDC8
:1027E000002800D0E9E01E981F990022BD4BFFF79A
:1027F0000FFD002800D0C8E01E981F990022BA4B98
:10280000FFF7F0FC002800D0BFE01E981F990022BF
:102810000023FFF7E7FC002800D0E4E000230B933F
:10282000229B5B0500D406260024302307E01721F5
:1028300006AA013452181355013E202C01D0092E4E
:10284000F5D81E981F99FFF711FDA84BF2009B18B1
:102850001A685B68050008920993FFF7EFFC020015
:102860000B001E981F99FFF75AFC089A099BFFF767
:102870007AFC06900791FFF71DFD8146FFF7DAFC11
:1028800002000B0006980799FFF749FC0022984BBD
:1028900006900791FFF7BCFC002800D10DE1012351
:1028A0009C46E1444846FFF7C5FC02000B0008982F
:1028B0000999FFF79DFC002802D0002399460135B5
:1028C000002E00D1D9E006954D46B94614E006AA7F
:1028D000944617230A216344280001341F19FFF787
:1028E000E3F93031397028000A21013EFFF7DCF9A5
:1028F000092D00D817E10500202CE8D14F46069D90
:1029000020240CAE06AA17239446634499465B46DE
:10291000B34606930FE04B4628000A210134E6181F
:10292000FFF79AF93031280031700A21FFF794F946
:10293000051E00D1E4E0202CEDD1069B5E469B46AF
:102940000323229A1340012B18D1219B002B15D071
:102950000B9B002B00D1FDE0219B013B2193202B01
:102960000CD93023219A07E0172006A90134091851
:102970000B55944200D3CCE0202CF5D1229B01943E
:102980000393219B0096029322E0229B52460493DC
:10299000219B3900039358461E9B1F9C029600936F
:1029A0000194434600F04AF90400200015B0F0BC41
:1029B000BB46B246A946A046F0BD229B5B070FD49A
:1029C00003224C4B22990192039121990093029189
:1029D0004346524639005846FFF790FD0400E4E7AD
:1029E0000422454BEEE71E9A1F9B00200021FFF7B3
:1029F00096FB01231E901F910B9311E7229B5446D7
:102A00009B0711D1219B042B0ED9219B55469C4637
:102A10005E46043C64442A004346013539002020C8
:102A2000B047A542F7D1B346344D26002B1F994637
:102A30005B46A3461C003200E87843463900013D5E
:102A4000A04701364D45F6D123005C469B46229BAC
:102A500004349B07A9D55346219AE31A9A42A4D974
:102A60005E4615002200434639002020B0475346F9
:102A70000134E31A9D42F5D897E72800FFF7DEFB03
:102A800002000B001E981F99FFF749FB0022184B0C
:102A900006900791FFF7A6FB0CAE002800D031E7A7
:102AA000069807990022124BFFF7B2FB002800D0CE
:102AB00028E7012301359D4324E700220698079962
:102AC0000B4BFFF78FFB002800D0F9E64B46002B9D
:102AD0005CD101239C46E144F2E6C046FFFFEFFFD4
:102AE000FFFFEF7F65CDCD4165CDCDC17879001079
:102AF0000000E03FA076001098760010A876001045
:102B0000069B5E469B460323229A1340012B00D16D
:102B100081E0202C00D131E70B9B002B27D02D2307
:102B2000335501342AE74F46069D202C00D1E7E6B5
:102B30003022331907E0172006A9013409180A5575
:102B4000202C00D1DCE6A342F5D12E220CAE0134BC
:102B5000F254D7E60C23229A134257D0219B013B13
:102B60002193A34200D9FCE6202C00D106E7229B4A
:102B70005B0703D52B2333550134FFE6229B1B074C
:102B800000D4FBE6202333550134F7E6DB0700D4FD
:102B900096E69EE7229B55469B0711D1219B032B6E
:102BA0000ED9219B54469C465E46033D6544220057
:102BB0004346013439002020B047AC42F7D1B34638
:102BC000B9465F461C4EEC1C2A00B0784346494685
:102BD0000135B847013EAC42F6D1229BBB464F4679
:102BE0009B0700D4E1E65346219AE31A9A4200D8A3
:102BF000DBE65E4615002200434639002020B04740
:102C000053460134E31AAB42F5D3CEE6219BA342EF
:102C100000D9A6E6B2E6219B002B00D179E70B9BF9
:102C2000002B97D0219B013B21939C4200D298E638
:102C3000202C00D073E7A1E6A4760010F0B5DE46A4
:102C400057464E464546E0B599B081468B4692467A
:102C50009846229A239B10001900FFF7DEFA0028FD
:102C600000D0CAE0229823990122824B5242FFF7FA
:102C7000CFFA002800D0C0E02298239901227E4B91
:102C80005242FFF7AFFA002800D0B6E0229823990D
:102C900000220023FFF7A6FA002800D0C9E1229BFA
:102CA000239C08930994089809998023269ADB00AD
:102CB0001A400D928022269C1201144022000B948F
:102CC000269C07000E001C4200D0ADE00B00034321
:102CD00000D0D5E0002A00D00AE222000633249377
:102CE000022313400C930223134200D002E2259BDF
:102CF000042B00D20FE2043B0B93002304250A931C
:102D00000022229823990023FFF76CFA002800D0B4
:102D100003E25A4B269A134004930B9B0393249B84
:102D20000293089B099C00930194594643465246DE
:102D30004846FFF72FFD02002020269B1F27034057
:102D400059424B415B421840531C08935946434635
:102D50004530C8470A9AD317D4185C40D30F0A935A
:102D60006B1E0B9308AB9C460025674401E0202DA9
:102D70000FD020000A21FEF797FF01357E19303170
:102D8000317020000A21FEF78FFF26000400092E73
:102D9000EDD8052306930B9B594605930023049316
:102DA0000A3303930A9B4846029310AB0093089A98
:102DB00043460195FFF7F8FB0C9B002B2DD05346A3
:102DC000C41A259BA34228D94D465F4681461E0062
:102DD000534639001A19202043460134A847A64219
:102DE000F6D8534648462599C21A0132002391422B
:102DF00000D386E1013018180FE0269B0493259B31
:102E00000393249B0293229B239C009301944346AB
:102E1000524659464846FFF7BDFC19B0F0BCBB46C8
:102E2000B246A946A046F0BD01432BD10B9B220020
:102E3000002B00D154E700230A93249B0A9A002414
:102E4000934200DD85E12298239900220023FFF7B9
:102E5000C9F9002800D035E1269B084A02941A409F
:102E60008023DB0013430493259B0393089B099C59
:102E7000CBE7C046FFFFEF7FFFFFEFFFFFF7FFFF4E
:102E800006232493B44B70009C46400D6044FFF72A
:102E9000D5F9B24AB24BFFF766F9B24AB24BFFF727
:102EA00043F93603B14B360B334304000D003800B1
:102EB00019000022AE4BFFF732F9AE4AAE4BFFF7D6
:102EC00052F902000B0020002900FFF72DF9FFF74F
:102ED000CDF90A90FFF7B2F9A84AA94B04000D00FA
:102EE000FFF741F90022A74BFFF71EF9FFF7BEF9E4
:102EF000A54A0600A54B20002900FFF734F904007D
:102F000030000D000C96FFF799F9A14AA14BFFF78D
:102F10002AF902000B0020002900FFF700F9020047
:102F20000B0006000F00FFF71EF9320004000D0031
:102F30003B0030003900FFF7F7F800220E900F91A8
:102F4000954B20002900FFF7F4F80022934BFFF780
:102F5000EBF802000B0020002900FFF7EAF800223E
:102F60008F4BFFF7E1F802000B0020002900FFF76C
:102F7000E0F80D008021040032003B000020C9056C
:102F8000FFF7CDF802000B0020002900FFF7CCF876
:102F900002000B000E980F99FFF7CBF80022734B3D
:102FA000FFF7C2F87F4B0C9C9C466444002223052B
:102FB000FFF7D9F806000F0002000B0008980999E6
:102FC000FFF710F900280AD00A9B3000013B3900B6
:102FD0000A930022714BFFF7ACF806000F000A9A23
:102FE000330063323900C62A12D8022226980425FB
:102FF00010400B9A0C90002A25D1259B042B05D953
:10300000002800D0A1E0259B043B0B93042541E060
:103010000222269810400B9A0C90002A12D1259B70
:10302000052B76D9002872D1259B0525053B0B93EE
:1030300034E0802212069446229B0893239B63442B
:10304000099330E605250B4300D1F6E60898099967
:10305000554A564BFFF7D4F8002808D0089809992C
:103060000022534BFFF7BEF8002800D0E5E6249B72
:10307000002B1CD00D9B002B19D0249B013B2493CB
:10308000259BAB4204D90C9B002B5AD002230C93F6
:1030900000230B930A9B002B00D131E60898099975
:1030A00032003B00FFF745F80890099128E6259B80
:1030B000AB42EDD90C9B002B43D000230B93023382
:1030C0000C93E7E78020269B3A4A00061A408023AB
:1030D00084460294089C099D2900DB001343049355
:1030E000259B6144220003930B00009201938EE61E
:1030F0000524A8E600230B930A93023304250C93BE
:10310000FEE553468C46013B63441B1A72E60223DC
:103110000C930525C2E70423EDE58020089E099F56
:10312000000639008446269A224B614413400493DA
:103130000B9B32000393249B02930B00009201939C
:10314000F3E5259B5B1B0B93A4E7022304250C935B
:10315000A0E79C1A013C76E601FCFFFFFB799F503B
:103160001344D33FB3C8608B288AC63F0000F03FAA
:103170000000F83F61436F63A787D23F71A37909CD
:103180004F930A400000E03F1655B5BBB16B0240BB
:10319000EF39FAFE422EE63F00002C4000002440AA
:1031A00000001840FF0300002D431CEBE2361A3FDD
:1031B00080842E41FFF7FFFFF0B5DE4657464E46AE
:1031C0004546E0B5A5B01E002E9B92460C93CD4A15
:1031D000CD4B80468B461A60002900D1EAE10023DE
:1031E00030789946002800D1ECE1C84B4C460B934F
:1031F000C74B454657460E930AE0631C984622008B
:103200003B005946A84744463078002800D187E063
:1032100001362528F1D108239A46043B9946023B02
:103220009846013B00229C460D943078711C0300A7
:10323000203BDBB2102B03D80B9C9B00E3589F462E
:103240000300303B89460D9C092B3AD90023984650
:103250002A2800D1C1E000239A462E284BD0030033
:10326000683BDBB2122B1ED80E999B00CB589F46B1
:1032700063460E001A43D8E743460E001A43D4E7CC
:103280004B460E001A43D0E710230E001A43CCE73A
:1032900053460E001A43C8E780235B001A43FF3BE6
:1032A0009C467078E1444E4667284FD82428A4D91C
:1032B0000300253BDBB2422B9FD896499B00CB589D
:1032C0009F46002394461E0000E00131B3009B1985
:1032D0005B001E180878303E0300303B092BF4D900
:1032E0000123624689469C460023B0469A460E005A
:1032F000E1442E28B3D13021802049428C46C000C1
:10330000024370784B4684446146092900D86CE139
:103310002A2800D17AE101239C464E46E1449EE7EB
:10332000A146A846BA46CA4503D801235B42534486
:10333000994653464A4659460020C047200025B0CA
:10334000F0BCBB46B246A946A046F0BD0300693BAF
:10335000DBB20D930F2B00D94FE7012199408C462A
:103360006D49894661464B4619400F91634649466F
:103370000B4200D028E10D9B0A2B3AD0072B00D03E
:103380003BE70C9B190008C98846002B00D14BE194
:1033900021200243914614A98C461F220F2162442A
:1033A0008C4651460D950C91A24615000F9902E0EE
:1033B00020290CD0130064461C4020003730092C13
:1033C00000D80738013168541A090F2BF0D80C9B2C
:1033D00054460D9D9A460F9133E10C9B02CB8846D3
:1033E000002947DB0C9301239C4670784E46E1444C
:1033F00031E70C9B02CB14935346002B00D138E1EC
:103400009C4608780B000C908C44002801D100F0F9
:1034100098FC89466146944603E05A780133002AB5
:1034200001D08B42F9D1494662465B1A0C900F934A
:10343000530500D520E10223180010400D901342DF
:1034400000D1CBE30D930B1BB1469A465E460C9818
:1034500022003B003100A84753460134185D002884
:10346000F6D1B3464E460D9B002B00D0C7E1149B0E
:103470000C93C9E60C9301239C4628384942024329
:10348000884670784E46E144E5E670786C2800D1B5
:103490007FE180235B001A43FF3B9C46E14402E747
:1034A00080239B001A4301239C467078E144FAE68E
:1034B0007078682800D173E180231A437F3B9C46D3
:1034C000E144F0E6672800D103E1472800D15AE142
:1034D000452800D15AE10492072142460C9B0392F1
:1034E000073352468B43190002920CC92800009200
:1034F00001930C9122003B005946FFF79FFB04000B
:1035000082E6C046B93100104C290020D87700105F
:103510001C7800106878001041900000462800D107
:10352000DBE00492072142460C9B0392073352468C
:103530008B43190002920CC92800009201930C9150
:1035400022003B005946FFF725F904005CE6631CA6
:10355000984622003B0059462520A847444653E69A
:103560000C9B04330D93631C9946920700D422E10F
:103570000C9B2200187859463B00A8474346444418
:10358000012B00D885E23300B8462E005F462500A7
:103590004C46994622004346013439002020B0476A
:1035A000AC42F7D12C00BB46350047464E460D9B3A
:1035B0000C9329E6DB4B3078984600239946002887
:1035C00000D012E60024AEE66F2800D188E000D8D3
:1035D0000BE31023782800D1CFE09A430A239C46BE
:1035E00000230F930A330D9380E05646B1008919EA
:1035F000490001330E181878303E0100303909298E
:10360000F4D9B2461E000133994628E60C9B0236D7
:1036100002CB8A46C9435046C917084082460C93DC
:103620003078731C99461AE6102310009843113322
:103630001843814680201300C0000340024200D19D
:10364000A9E64B460693082305935346049310239B
:103650000393002302930F9B220001931CAB009362
:1036600059463B002800FEF79FFF434604000C9399
:10367000CAE501235B42C3E60F9B534501D953467C
:103680000F930223180010400D90134200D1B7E1B0
:103690000D93D1460B1B9A463300A1442E00220005
:1036A0004D460C98B9465F469B4608E04B463900AC
:1036B000541CB0475346185D002877D0220095422D
:1036C000F4D15B46BB464F46A94635004C461E002A
:1036D000C9E680231B011A43FDE620231A4320E795
:1036E00008239C4600230F9308330D938023110079
:1036F000DB0019401A4200D116E10D239A43100055
:10370000802302009B001A401492184200D0C2E1AC
:10371000802302005B001A4091460C9A04320F92FB
:10372000184200D0B7E2430600D59FE1030600D45B
:1037300019E30C9B1B880993002B00D0FCE110338C
:103740009843002900D1F7E10023994643460593A9
:10375000534604930D9B069003930023D2E0582810
:1037600008D0622867D102239C4600230F930233BE
:103770000D93BBE720231A43103B9C4600230F9375
:1037800010330D93B2E780231B011A4320231A4301
:10379000A1E6C0239B001A43F31C9946B07882E54A
:1037A000C0231A43F31C9946B0787CE535005E4689
:1037B000BB464F4657E64346012B00D863E1631EE4
:1037C00043449A463300B9462E005F4655469B4611
:1037D000A24622004B46013439002020B047AC42BB
:1037E000F7D135005E46BB464F46A14654460C9B7A
:1037F0004A46187859463B004444A847D7E6A146B4
:103800000F9B984500D832E64444E41A3300B8468A
:103810002E005F4625004C4699462200434601345F
:1038200039002020B047AC42F7D12C00BB46350010
:1038300047464E461BE680231000DB0018401A4224
:1038400000D10FE1112118008A430D920D9A8023B7
:1038500011009B0019408C461A4269D18023110047
:103860005B00194089460C9904310F911A4200D02F
:10387000CAE113005B0600D5F0E013001B0600D47C
:1038800059E20C9B00229B5ED9175A184A4092B20B
:10389000D90F0C91002B00D1F9E1100014AA944625
:1038A00042461F23149252466344A84616944D463E
:1038B0000400B946B2461F00159201E0202D0FD03A
:1038C00020000A21FEF7F0F901357E193031317000
:1038D00020000A21FEF7E8F926000400092EEDD8A1
:1038E000149B4F46A94645469846159B56469A4610
:1038F000169C0D9B069343460593534604930A2357
:1039000003930C9B02934B4601931CAB2200009344
:1039100059463B002800FEF747FE0F9B04000C931E
:1039200072E4C046F92400100C239A431000E7E625
:1039300007220C9B07339343013294469C44624612
:103940000C920CCBD90F0F911100194300D191E0CB
:10395000D917139112915140109113995940119117
:1039600010981199129A139B801A994110901191F5
:1039700014AA0023944642469946149252461F3395
:103980006344A846B24616944E46109C119DB94613
:1039900015921F0001E0202E10D0200029000A22DD
:1039A0000023FEF7BFF9013630322B00BA550D0067
:1039B00022000400002BEED1092AECD8149B1094AD
:1039C000119545469846159B4F46B14656469A4630
:1039D000169C0D9B069343460593534604930A2376
:1039E00003930F9B02934B4601931CAB2200009361
:1039F00059463B002800FEF7D7FD0400FFF704FC02
:103A00000F9B984500D8C1E18023DB000D9343460E
:103A10000F9A1B199B1A994633002E004D46B94642
:103A20005F469B460C9122004B4601343900202012
:103A3000B047AC42F7D143460C9901330F930B7852
:103A400035000C935E46BB464F46002B00D10EE579
:103A50000D9B002B00D1F6E4002319E60C9B1B788C
:103A60001A0015E710239A430D92EFE60C9B1B7882
:103A7000099361E6002399460028AAD10022002379
:103A80001092119374E70C9B2200187859463B0062
:103A9000A8474C468BE50C9AFA3BFF3B07329A430A
:103AA0000133994691444B460C9313685268159222
:103AB0001A4306D11032904300220992002900D007
:103AC00081E06122810600D54122D2B20A9214AA75
:103AD00091460A9A00210A3A149242461792524697
:103AE00018925A460991B3461F311E000F9B494454
:103AF000BA4619941A950024674698468946159D3A
:103B000016901B920AE03032D2B24B4601341A555D
:103B1000A8454AD0202C4AD006000D003A000023C8
:103B200030002900FEF7FEF8D2B2092AEBD9149B27
:103B30009C466244D2B2E8E76123820600D5412365
:103B4000DBB20A3B0C93434614A91F228C46159303
:103B500053466244A046B2464C461797A946170002
:103B6000099D0D9E1490169308E03033DBB20134AA
:103B70003B55B5420ED3202C0CD005003100280057
:103B8000FEF792F8CBB20929EFD90C9A9446634418
:103B9000DBB2ECE7159B4D46A14644469846169B82
:103BA000564614989A46179FD0E5B742B2D9179B4C
:103BB00057469846189B5E469A461B9B09949B461F
:103BC0001698199C1A9D43460593534604930D9BE2
:103BD0000690039300230293099B05E70F9B9845EA
:103BE00000D914E701330F932DE4102311009943FA
:103BF0000D91692800D0BAE080231000DB00184046
:103C00001A4200D122E61DE60C9B1B68DA0F110058
:103C1000002B00D18CE0DA179818504014AA914676
:103C200042461F23149252464B44A046A94616977B
:103C300004006546B2461F000C91159201E0202D4C
:103C40000FD020000A21FEF72FF801357E19303100
:103C5000317020000A21FEF727F826000400092E03
:103C6000EDD8149B444698460C9BAC461900159B16
:103C700056464D469A46169F0D9B02910693434623
:103C80000593534604930A23039363463CE60028B6
:103C900000D02EE602E60C9B1B689946002B03D150
:103CA00010339843002938D16123820600D541237F
:103CB000DBB20A3B0C9343461693534614A91F22CA
:103CC0008C4617932B006244A0464D46B246189787
:103CD00099461700149C0D9E159008E03033DBB216
:103CE00001343B55B5420ED3202C0CD005003100D9
:103CF0002800FDF7D9FFCBB20929EFD90C9A9446D9
:103D00006344DBB2ECE7169B149444469846179B39
:103D100056464D469A461598189F43460593534676
:103D200004930D9B0690039300230293149BEBE5F1
:103D30000028A1D172E70C9B1B68D9175A184A407A
:103D4000A6E580231000DB0018409C460F901A4225
:103D50000FD00220030013400F93104219D000230C
:103D6000A1460F934CE50C9B1B680993E4E40A0001
:103D700034E40223180010400D90134200D03EE5B9
:103D80004346002B00D042E6FFF771FB01330F934F
:103D90007FE463460D93F3E710B50C0084B0039401
:103DA000012402A902900093034813006242FFF726
:103DB00003FA04B010BDC0468527001010B5094AAB
:103DC0000300146884B0002C08D00122009106483A
:103DD000524203A9A047012004B010BD00F098F999
:103DE0000020F9E74C2900207527001000BEFDE7F0
:103DF00010B5FFF7FBFFC04670B5FDF709FE074D94
:103E0000074EB54209D20024013E761BB60808CD04
:103E1000984723000134B342F9D170BD7C7500107E
:103E200084750010030010B5080011001B68984746
:103E300010BDC046F0B5C64600B5437D07000C0076
:103E40001600002B46D0002A17DD0B780A2B24D051
:103E500000239846012E13D001252900635C01350B
:103E60000A2B26D0B542F8D1464509DCA419013CFD
:103E700023780D3B5A4253413B7580BCB846F0BD98
:103E80004346E018A419F11A013C3B68984723788F
:103E90000D3B5A4253413B75EFE7037D002BD7D1D1
:103EA00002210F483B689847012EDFD00123984636
:103EB000D2E7631E5B5C0D2BD4D0884504DA434601
:103EC000C91AE0183B689847022105483B68A84694
:103ED0009847C7E70368110020009847CDE7C04620
:103EE000C8790010F0B5C6460B6806000C0000B596
:103EF000802B06D05A1C2260E418267180BCB8467C
:103F0000F0BD0F4B1D68002D16D00B1D98460D4FB0
:103F100002E02D69002D0FD02B68002BF9D03B68F3
:103F2000002B01D0AB42F4D1280041462268FFF7B4
:103F300081FF2D69002DEFD101220023DBE7C04670
:103F40004025002048250020F0B54546DE464E4677
:103F50005746E0B583B091461C0080460D00FDF742
:103F600041FB0023304A12184B41002B02DA012298
:103F70002E4B52422E4908008A4603F0A9FA070048
:103F80006B1C03D1404603F021FA0500002C27D01A
:103F9000284E294B1C68002C18D04B46002B21D1F1
:103FA000264B994602E02469002C0FD02368002B91
:103FB000F9D04B461B68002B01D09C42F3D1200066
:103FC0002A004146B0472469002CEFD1002F26D1AA
:103FD000280003B0F0BCBB46B246A946A046F0BDDF
:103FE000174ED6E7154B99460A239B4602E02469F3
:103FF000002CEBD02368002BF9D04B461B68002B1C
:1040000001D0A342F3D12A0041462000B0476B46BD
:104010005A462000DA71D91D0122B047E7E7504621
:1040200003F016FAD4E7C04640420F00FFFFFF7FBF
:1040300060120020353E0010402500204825002059
:10404000253E00100A4A1368002B05D10CE01A0027
:104050001B691032002B07D08342F8D1002902D10E
:1040600018691060196170470029FCD01060FAE7E8
:104070004025002010B500F0F1FA10BDF0B5CE4695
:10408000474680B583B06B460600DD1D2870FDF7FE
:10409000A9FA0023194A12184B41002B02DA012217
:1040A000174B524217490800884603F011FA164B85
:1040B00081461C68002C14D0144F02E02469002CA7
:1040C0000FD02368002BF9D03B68002B01D09C4215
:1040D000F4D1200001222900FFF7ACFE2469002C56
:1040E000EFD14B46002B05D1300003B0C0BCB94620
:1040F000B046F0BD404603F0ABF9F5E740420F0093
:10410000FFFFFF7F6012002040250020482500208F
:1041100070B5040003F05AF90123010005000122E3
:104120002000FFF711FF084B1C68002C06D06368C5
:10413000002B05D098472469002CF8D1280070BDC9
:104140002469002CF3D1F9E740250020F0B5CE46D4
:10415000474680B5A3B004000D00FDF743FA0023E5
:10416000274A12184B41002B02DA0122254B5242FA
:10417000254E300003F0ACF9002322000193070024
:104180002B00224801A9FFF707FE214B80469946E4
:104190001C68019B002B1AD0002C2FD01D4D02E073
:1041A0002469002C0FD02368002BF9D02B68002B3A
:1041B00001D0A342F4D12000019A02A9FFF73AFEF0
:1041C0002469002CEFD14B461C6800230193002C7E
:1041D00006D06368002B0BD098472469002CF8D1D7
:1041E000002F07D1404623B0C0BCB946B046F0BD51
:1041F0002469ECE7300003F02BF9F3E70194EFE7D3
:1042000040420F00FFFFFF7F60120020E53E0010DC
:1042100040250020482500200FB400B583B004A934
:1042200001C90191FFF792FF03B008BC04B0184721
:104230007047C0460022014B1A707047C12A002007
:104240004B790020FF2B0BD18B79002B08D1CB7938
:10425000012B05D1082A03D9024B8A7809301A703C
:104260007047C046C12A00200120704710B50129BF
:1042700013D112495379107909781B0203430020A6
:10428000994200D010BD5378012B08D0022BF9D1F0
:10429000642200210020FDF705FB0120F2E7D3781E
:1042A00091781B021943480ADB0501D401204042E2
:1042B0007F238A05D20F1940FDF77CFBC12A00201D
:1042C00000487047947A001070B505001400012072
:1042D000012909D153780020012B05D16379127986
:1042E0001B021343072B00D070BD21002800024A97
:1042F0009F3301F055FAF7E7EC79001001230370C2
:1043000000487047CC7900104B780A781B021343A1
:104310008A7810B512041A43CB781B0613439622F1
:10432000D200934200D010BD002201201100404273
:10433000FDF740FB024B1860024B19607047C04606
:10434000F41B0020F81B002010B5024B1878FCF776
:104350009BF910BDC22A0020154B70B51A68002ABF
:1043600022D0EFF3108172B610680028FCD0BFF3A2
:104370005F8F00200F4A596010701B68BFF35F8F7A
:10438000186081F31088002400250B4E3078FCF76C
:104390006FF9002804D1002400252900200070BDF9
:1043A0003078FCF771F9F8E7FA240025A400ECE76F
:1043B00070290020C32A0020C22A002070B5040002
:1043C00000200E0001F00AFB002834D0002001F08C
:1043D0001BFB00282FD0FDF705F90023174A121800
:1043E0004B41002B16DB164D280003F071F8002816
:1043F00021D0002001F0F2FA00280FD10120002185
:10440000404200F001FD03246442280003F020F83C
:10441000200070BD01220B4B5242E4E7002001F066
:10442000F3FA0028EAD021003200002001F0F6FA69
:10443000041EEAD1E7E703246442E9E740420F00A3
:10444000A02A0020FFFFFF7F10B5FDF7CBF8002367
:104450000D4A12184B41002B02DA01220B4B52423B
:104460000B4C200003F034F800280CD00120002170
:10447000404200F0C9FC002001F014FB0028F5D1F7
:10448000200002F0E5FF10BD40420F00FFFFFF7F5C
:10449000A02A0020F8B5DE46574680B505000C007E
:1044A000FDF7A0F80023364A12184B41002B02DA20
:1044B0000122344B5242344908008A4603F008F87E
:1044C000002803D1C0BCBB46B246F8BD002001F0B5
:1044D00085FA00284AD00026002C43DD2B4B9B4652
:1044E00014E0A919002001F017FB070001200021AA
:1044F000404200F089FC002001F0D4FAFDF772F888
:10450000224BF61918605960B4422BDD002001F0EF
:1045100023FBA71B0200B84200DD3A00002AE0D1CD
:1045200001200021404200F06FFC002001F0BAFAA7
:10453000002001F053FA002814D0002001F00CFBF9
:104540000028E1D1FDF74EF85B460F001A685B6862
:10455000002184460E4812184B419F4202D8D3D105
:104560009445D1D9504602F073FFABE700200021FB
:10457000064B18605960504602F06AFFA2E7C04639
:1045800040420F00FFFFFF7FA02A002030140020D0
:1045900020A1070030B52A4C85B00021200002F090
:1045A0007FFF00281CD1274B1A68002A16D0EFF392
:1045B000108172B610680028FCD0BFF35F8F012411
:1045C0002148596002781B68D2B20470BFF35F8F34
:1045D0000020186081F31088002A17D005B030BD84
:1045E00001200021404200F00FFC002001F00CFAF5
:1045F0000500200002F02CFF002DEFD0134B1B68AC
:10460000002BEBD0124A10689847E7E7FCF76CFDE7
:104610000400FCF7E7FFFA220023920012184B4136
:10462000002B02DA01220B4B5242012102910021A0
:104630000191094920000091FCF75AFDCEE7C046E0
:10464000A02A002070290020C32A0020F41B00208B
:10465000F81B0020FFFFFF7F59430010D02310B547
:104660001B0684B01C68FCF73FFDFCF73BFEA04234
:1046700002D0002004B010BD294B002100201B787F
:1046800001F05EFD27480368002B45D00120FCF7B0
:104690009BFAFF23244C254920701840FCF70EF8A4
:1046A00020780121FBF7D2FF0520FBF7F5FF00285A
:1046B00024D1082200211E48FDF712FFFCF714FD4B
:1046C0000400FCF78FFFFA220023920012184B41DE
:1046D000002B02DA0122174B5242012102910021E4
:1046E0000191154920000091FCF702FD0028C0DB74
:1046F00012480121FFF7A6FC0120BBE70120FBF7D0
:1047000073FF0B4B01001800FCF7DEFA00220520B6
:104710000B49FBF7FDFFEBE7FCF7ACFAB6E7C04649
:10472000987C0010A02A0020C22A00209545001085
:1047300070290020FFFFFF7F594300100012002066
:104740004943001000487047307B00100048704714
:10475000DC7A001010B5040017480378002B20D035
:10476000002C06D1154B16484380063BFF3B0380C7
:1047700010BD052C1DD8134BA400E058124901238D
:10478000013804E001330A800231142B0DD0C25CE1
:10479000002AF7D1C022DBB25B0092000848134325
:1047A000E5E7112100F01AF8DAE7CA2304489B0074
:1047B000DDE70020DCE7C046A82A0020090400004D
:1047C00018250020C47A00101A25002010B50248D0
:1047D00000F0D8F810BDC0469029002030B54B1E1F
:1047E000012900D1A7E0664A11780D092C00303468
:1047F0009F2900D9A2E00470012B00D1BEE00F2157
:10480000147821400C003034092900D998E0447014
:10481000022B00D1B2E054782509290030319F2CB9
:1048200000D990E08170032B00D1A7E00F21214037
:104830000C003034092900D987E0C470042B00D162
:104840009CE094782509290030319F2C00D97FE025
:104850000171052B00D191E00F2121400C00303473
:10486000092900D976E04471062B00D186E0D4787E
:104870002509290030319F2C00D96EE08171072B6A
:1048800000D17BE00F2121400C003034092966D88B
:10489000C471082B00D171E0147925092900303149
:1048A0009F2C5FD80172092B68D00F2121400C008A
:1048B0003034092958D844720A2B5FD0547925091D
:1048C000290030319F2C52D881720B2B56D00F21EA
:1048D00021400C00303409294BD8C4720C2B4DD028
:1048E00094792509290030319F2C00D907310173B3
:1048F0000D2B43D00F2121400C003034092901D960
:1049000037310C0044730E2B38D0D1790C092200BA
:1049100030329F2900D9073282730F2B2ED00F22FD
:104920000A4011003731092A01D830321100C17311
:10493000102B23D010300023037030BD07345AE70A
:1049400037310C0063E707316CE737310C0074E74F
:1049500007317DE737310C0085E707318EE73731C6
:104960000C0095E707319DE737310C00A3E70731CD
:10497000AAE737310C00C4720C2BB1D1C018DAE7AA
:104980009029002010B588B004000D22002168464F
:10499000FDF7A6FD0D22002104A8FDF7A1FD4B2384
:1049A0006A466846137004A90D2202F049FD1521DC
:1049B000082220006944FDF799FD08B010BDC046EB
:1049C000F8B500F047F90C23194DFF22AB6705201D
:1049D0001849FBF79DFE184C402200212000FDF7EE
:1049E0007FFD4027002301262121144A667027837A
:1049F000A260136063545F31618445396354104A87
:104A000010496360E2602787A1620B606362E26223
:104A100002F04EFD80239B052E64EB6490230A4A2E
:104A20000120EA508022094B5202DA64F8BDC046E8
:104A300000001150D90600204C25002084001050A1
:104A4000000110508000105010D0010000201150C3
:104A500010B501210520FBF7F9FD10BD10B50022AE
:104A60000021024800F016F910BDC0466C25002058
:104A7000044B1970002904D080219023024A890236
:104A8000D1507047BD2A0020002011500B785B06E2
:104A900002D14B78052B00D070478A78014B1A6001
:104AA000FAE7C04600001150F0B5C646C87800B518
:104AB0008007830F1800012B60D08F780A794B791B
:104AC0007F213940FC091B024E001343334D32193C
:104AD0005201AA18977001276740577000275B059D
:104AE0005B0DD7701383D076B846CA00012C32D044
:104AF0002B4FBC468F016244BC46AC446746BA604B
:104B000047461760002932D0264AC90090466246BF
:104B1000414451603F223F339343022837D022491A
:104B200037190A687F01D3180B602049EF19FA6022
:104B30008B422ED836197601AD19EB7E1C499B06A7
:104B40004A4013438022120613436A68136001200F
:104B500080BCB846F0BD174FBC468F016244BC46CE
:104B6000AC446746BA6247461760002908D1002363
:104B700064012C196360104BE360E8E70020E7E76D
:104B80000B4AC9009046624641445162C2E75B004D
:104B9000C5E7FCF737FFFA68CCE7C0464C25002094
:104BA000840010500400105054290020FF0F1050B2
:104BB00000001050800010500001105010B502F09D
:104BC00077FC10BD10B57F200C0020404000E409A8
:104BD000110000191A00034B4001C01800F05AF8E8
:104BE000012010BD4C2500207F23180000B508408F
:104BF00083B00B4204D14B424B41084A01339366C8
:104C00008022C9094000064B401840010021C0180D
:104C1000120102F085FC03B000BDC0460020115017
:104C20004C2500207F22130010B50B400A4200D112
:104C300010BDC9095B005B1804485B01C018002364
:104C400000220349C37002F06BFCF1E74C25002001
:104C5000FFF7FFFF80220A4B520410B51A60094B80
:104C600009491A6010000B689843FBD1802200218B
:104C700052010648FDF734FC0922054B5A6710BD66
:104C800000E0004000F0004008C00040000010506C
:104C900000001150002310B5C38201338282837655
:104CA0000161040002F034FC002804D0802190232C
:104CB000074A8902D150200002F012FC002802D0DD
:104CC0000123237710BD200002F012FCFAE7C04652
:104CD000002011507047C0467047C0460020704702
:104CE000002070477047C0467047C0467047C046B6
:104CF0007047C046024B5878431E9841C0B2704777
:104D0000E8160020024B18784007C00F7047C046D5
:104D1000E8160020F0B5D6464F464646C0B52F4BA4
:104D200007009A461B780E00FF2B50D1002941D076
:104D3000002154222A48FDF7D3FB0022294C2A4B9C
:104D400020001A70FBF796FF284B1C60284C2000AF
:104D5000143CFBF7ABFF200001F0FAFD254B264D7C
:104D60001C60264B002B04D02800FFF7C7FA244B09
:104D700018602449002489462149002388462A785E
:104D800010E043461B6862019B18002B12D05B6841
:104D9000002B0FD098472A780134E4B2511C23002D
:104DA000A14209DBA242ECD89B1A5B014B445B6831
:104DB000002BEFD100200BE05346310038001F706C
:104DC000FFF7FEFD0028F5D03800FFF741FE012077
:104DD000E0BCBA46B146A846F0BDC0463412002039
:104DE000E8160020E0160020BE2A00203C17002014
:104DF0002C12002040170020BC2A0020FD42001089
:104E000038150020EC7B0010F0B5DE4657464E46C4
:104E10004546E0B5C84B91B002931B78FF2B00D1FB
:104E20003EE1C64BC64E9B465F46C64B0DAC01935A
:104E3000C54B009335686A69EFF3108172B6136849
:104E4000002BFCD0BFF35F8FA9612800210001F087
:104E5000AFFB6A69AB69BFF35F8F0021116083F319
:104E60001088002800D11BE16378082BE2D89B0052
:104E7000FB589F466368002BDCD0A0689847D9E7B1
:104E80007F222179AF4D0A405300EB189846C8099C
:104E9000804440460123303005799D4305710579F2
:104EA00003339D430571002A00D100E14346A74A20
:104EB0001B7D1278934200D3EFE0A54A5B01156891
:104EC000ED18002D00D1EBE0A36862792078AD6980
:104ED000A847AFE79F4A1378002B00D1E0E0137892
:104EE000013BDBB213701378002BA3D10122954D47
:104EF00001212B78042013432B703423EA5C8A436E
:104F0000EA54EA5C8243EA540133EA5C8A43EA5495
:104F1000EA5C8243EA54237800209B4600F09EFC22
:104F2000602223791A40602A00D1EFE0402A00D1A4
:104F3000F5E0DB06DB0E012B00D113E1022B00D1E3
:104F4000C7E0002B00D0E1E0202A00D11CE2002ABB
:104F500000D0DBE06379092B00D9D7E07E4A9B00C3
:104F6000D3589F46774D2B78DB0700D462E7FFF7D5
:104F7000BFFE5FE7019BDB78DB0700D45AE7606880
:104F8000FFF7AAFE56E76F4D2B78DB0700D451E7F9
:104F900028780007C00FFFF7A9FE4BE723786A497E
:104FA00099468B46694B6A4998468A4639001A7871
:104FB00047460023B04600254E46894610E053463A
:104FC0001B686A019B18002B00D176E0DB6830007B
:104FD00098473A780135EDB2511C2B008D4244DCE4
:104FE0009542ECD39B1A5B015B44EFE72378584969
:104FF0009946564B8A4698463100BB464E461A782B
:1050000000250023474689460FE053461B686A0186
:105010009B18002B55D0DB68300098473A78013553
:10502000EDB2511C2B008D4207DC9542EDD39B1A4B
:10503000009A5B0194466344EDE7019D54220021F0
:105040002800FDF74DFA1022FF214448FDF748FAE9
:1050500028002022FF2114304E465F46FDF740FA1B
:1050600000F0F2FBFFF740FEE4E6364D542200214B
:105070002800FDF735FA1022FF21281DFDF730FA30
:1050800028002022FF21143046464F46FDF728FA1B
:1050900000F0DAFB2379AB70CCE6501C984213DAAF
:1050A00011B0F0BCBB46B246A946A046F0BDA3680D
:1050B0006279207800F0E6FBBCE646464F46214D7B
:1050C000E6E74E465F46CBE71F4D9B1A5B015D1935
:1050D000FAE67023217A0B4218D1C80982460F33B1
:1050E0000B405B0098461948EB1853441B7D007831
:1050F0009946834266D216485B010068814699440E
:10510000002A00D15FE14B46002B68D120780021B6
:10511000FFF76AFD80212078FFF766FD8AE61048D8
:1051200000F09CFB012158460EAAFFF7CDF800289D
:1051300000D07FE6EAE7C04634120020447B00102E
:1051400040170020E8160020EC7B0010BC2A00204D
:1051500038150020BE2A0020687B0010EC160020C5
:10516000C9420010237A0F2BD0D8CF4AEB181B79F5
:105170001578AB423ED3691C9942C7DB5D1BCB4B14
:105180006D01ED18686900F069FB012158466B69F3
:105190000EAA9847002800D04CE66022150023791B
:1051A0001D401A42B2D163790A3B012BAED800F000
:1051B00055FB63790A2B00D199E158460EA900F0FE
:1051C000D9FA37E6431C4B4500DAF7E04B461B1A89
:1051D0005B019946B5488144002A00D1F3E04B4673
:1051E000586900F03BFB4B46012158465B690EAA0B
:1051F00098479CE7AE4A5B011568ED18002DC1D1B8
:1052000084E7A37999466B789945D6D06B78002BC3
:1052100000D033E14B466B70002B00D12BE14846A8
:105220000138C0B2FFF792FA002800D17EE143783E
:105230000793022B00D079E10122C179B1468B118D
:10524000491113400A40302112015B0113432A78AF
:10525000A8468A4313432B7009239A468244564634
:10526000BA46C37882781B021343C31805938E4B4A
:1052700004938E4B08938E4B09938E4B0A93059B98
:10528000B34200D855E1737801220B2B03D1337858
:10529000F278F6187378042B00D044E1059B0027C0
:1052A0009B1B9BB20693049B0B921D7800230393D8
:1052B0001BE0099A7B011568ED18002D00D132E141
:1052C000310058462B69069A98478446082803D926
:1052D000069A824200D313E1049B01371D78FFB286
:1052E0006B1C03979F4200DD1DE1BD42E1D8039B8B
:1052F0005D1B089B6D019C466544E1E76B780CAA39
:1053000002321370584601230EA900F049FA91E5C4
:10531000E3881A0AD8B20F2A00D9F7E66649930043
:10532000CB589F460EA800F09FFA5846A179FFF788
:1053300095FB02222B7813432B707BE5E388012B2E
:1053400000D0E3E608222B78584693430EA92B7031
:1053500000F010FA6EE5022029780CAB9A1C8B063F
:105360008908DB0F01400B431380584602230EA926
:1053700000F016FA5EE5E388012B00D0C6E60822AD
:105380002B7813432B7018E7237A0F2B00D9BDE637
:10539000EB181D79444B1B789D4228D2444B6D017C
:1053A0001B685D19002D00D1B0E6686900F056FA5F
:1053B000012158466B690EAA9847B8E6002A00D02A
:1053C000A4E60023994662790220130003928343E6
:1053D000012B15D0002A00D098E62B0043445344FB
:1053E00030331B790CAA9B07DB0F0232BCE75A1C37
:1053F000AA4200DA8AE6ED1A2C4B6D01ED18D4E7CB
:10540000E388002B12D1029B1878039B012B23D039
:10541000FFF7EAFB43460221EB18534430331A7975
:105420000A4301211A711A790A431A714B46002B5B
:1054300000D1FFE4586900F011FA4B4601215B6985
:105440000EAA58469847002000F008FA3523EB5C76
:10545000DB0700D5EEE4B0E6FFF7E4FB43460221AC
:10546000EB18534430331A798A431A711A79039925
:105470008A431A71DAE7FFF737FC9EE600215846A7
:10548000FFF7F6FA5846FFF799FBAB780749039305
:105490000491054B064998461A7805910023290086
:1054A0001D008A461BE0C046BC2A0020EC7B001091
:1054B00038150020FC160020907B0010059B6A0127
:1054C0001B689B18002B4DD0DB6858469847434615
:1054D0001A780135EDB2511C2B008D422EDC95421D
:1054E000ECD39B1A049A5B0194466344ECE70CAB43
:1054F0009A1C584601230EA9157000F051F999E441
:105500000B9A012A4FD0002A3CD00023B07804E047
:105510000133DBB20F71934234D2C118C9B2414496
:105520000D79FF2DF4D04E464546574600236B704B
:10553000ECE54E465746FFF7D5FB3EE6554654226E
:1055400000212800FCF7CCFF1022FF21281DFCF7CA
:10555000C7FF28002022FF211430FCF7C1FF039B66
:10556000AB7057E65546FAE7FEF7AAFE021E00D1D9
:10557000CCE5D37891781B020B4358460EA900F076
:105580000FF9D4E565463B002A0031000A9800F087
:105590007FFEAC46049B039A1B786644013393421A
:1055A00000DB6CE6BFE7174B29699942ADD1079A3A
:1055B000ABE7FFF793FB021E00D1A7E5584613782F
:1055C0000EA900F0EDF8B2E52189FFF7C3F8021E3D
:1055D000F4D19BE5022A0FD0FFF782FB021EC8D14F
:1055E00094E5FFF7AFF8021E00D18FE5122358466D
:1055F0000EA900F0D5F89AE5FFF7A8F8021EB8D179
:1056000084E5C046595C0010F8B557464E46DE4664
:1056100045460C00E0B516001F00002A3CD0702360
:1056200098461E4B00259B461D4B9A461AE05B464A
:105630001B78200099465346997800F0EBFD00282E
:105640001CD021004846FFF72FFA002816D0A37877
:10565000DA09012A19D00A9A013513702378E4185F
:10566000B54219DA6378052B08D1E3789B079B0FC5
:10567000BB4203D14246A3781A42D8D00020F0BCE6
:10568000BB46B246A946A046F8BD0B9A0135137039
:105690002378E418B542E5DB0120F0E7341200205E
:1056A000E8160020702270B58B780C001A4201D0E9
:1056B000002070BD064B20001D78064B997800F045
:1056C000A9FD0028F4D021002800FFF7EDF9F0E74C
:1056D00034120020E81600200B007F2010B518407F
:1056E000DB0934334000044AC018044B1168C01869
:1056F00000F04CFD10BDC0463C170020E81600200D
:105700000B007F2010B51840DB0934334000044AF9
:10571000C018044B1168C01800F060FD10BDC046F1
:105720003C170020E816002070B57F240F480C407D
:1057300064000419CD09641930342079C00701D5FB
:10574000002070BD01262579094835430078257170
:10575000FFF738FA0028F4D101222379934323710B
:105760002379033293432371EAE7C046E816002009
:105770003412002070B5094C0600082220000D00EC
:10578000FCF7B4FE00238021E360A3602B78300097
:10579000994300220023FFF7C7FF70BDC816002001
:1057A000F8B5CE4647469046254E80B5814608223C
:1057B00030000D001F00FCF799FE4346B360002344
:1057C000F381EC79AB7924021C43231CBC4200D941
:1057D0003B1C9FB2B381002C0DD0002F17D0424646
:1057E000002A2BD0402F1BD89FB233787F2B1CD898
:1057F0000021144A0FE080212B780022994348466B
:105800000023FFF791FFC0BCB946B046F8BD7F2327
:105810000022317899433B004846FFF785FFF2E7C5
:1058200040239FB233787F2BE2D9064C3A004146A1
:105830002000FCF75BFE80212200ECE70020E2E77D
:10584000C81600208816002010B514220021024836
:10585000FCF746FE10BDC046C8160020014B18617B
:105860007047C046C816002010B5054C010008223C
:105870002000FCF73BFE0023A360E36010BDC046A0
:10588000C816002070B5384C1D0023780600DA09D0
:10589000C9098A4210D00020002D00D070BD21001F
:1058A0003000FFF7F3F82369002B03D02200032117
:1058B000300098470120F1E77F2B06D8A068002828
:1058C00034D02A002949FCF711FEE289A168521957
:1058D000E38892B24919E281A160934214D03F2D2E
:1058E00012D9A389981A051C80B240282AD820789A
:1058F000ADB27F2828D800219A4232D01B4A2B0013
:105900003000FFF711FFC9E72369002B05D0220003
:1059100002213000984700280AD0802123780022F5
:10592000994330000023FFF7FFFEB7E70020B5E7FB
:1059300000213000FFF758F930008021FFF754F9BB
:105940000120ABE74025D2E79A4207D0074C2A0056
:105950002000FCF7CBFD80212200D0E7802100222F
:10596000CDE70022CBE7C046C816002088160020ED
:1059700070B50400FFF7BEF9002800D170BDFFF735
:10598000C1F90028FAD1C8236343124DEE18F1780B
:105990000029F3D010335D19280000F0F3FD3F28F3
:1059A000ECD90020F178FFF797FE0028E6D0280018
:1059B00000F0E8FDF1783F2807D9074BE201D21843
:1059C00000204023FFF7B0FED8E70020FFF798FE45
:1059D000D4E7C046C01500203C15002010B50400D7
:1059E000FFF788F9002801D1002010BDFFF78AF9E0
:1059F0000028F9D1C8226243024B01309B181B7961
:105A00001840F2E7C0150020C82310B543430248F0
:105A1000181800F099FD10BDD0150020F8B5C82465
:105A2000802344431C4F103405003C195B029A420A
:105A300000D31A4A200092B200F008FE0600FFF7D9
:105A400059F9002801D13000F8BDFFF75BF90028B3
:105A5000F9D1C8236B43FF18FB78002BF3D020004B
:105A600000F090FD3F28EED90020F978FFF734FED2
:105A70000028E8D0200000F085FDF9783F2807D9FC
:105A8000074BEA01D21800204023FFF74DFEDAE76A
:105A90000020FFF735FED6E7C0150020FFFF00000D
:105AA0003C150020F8B50400FFF724F9002801D1C7
:105AB0000020F8BDFFF726F90028F9D1C825654375
:105AC0002E00134F2436F619300000F03DFD00285B
:105AD000EED07F190020B978FFF7FEFD0028E7D04F
